:100000000C9435000C945D000C945D000C945D0024
:100010000C945D000C945D000C945D000C945D00EC
:100020000C945D000C945D000C945D000C945D00DC
:100030000C945D000C945D000C945D000C945D00CC
:100040000C9483010C945D000C94F3010C94CD018D
:100050000C945D000C945D000C945D000C945D00AC
:100060000C945D000C945D00AF0311241FBECFEF14
:10007000D8E0DEBFCDBF16E0A0E0B1E0EEE8FCE0E6
:1000800002C005900D92A839B107D9F727E0A8E979
:10009000B6E001C01D92AE33B207E1F710E0C5E350
:1000A000D0E004C02197FE010E943A06C433D10774
:1000B000C9F70E9425020C9445060C940000CF92CB
:1000C000DF92EF92FF920F931F93CF93DF936C0118
:1000D0007A018B01C0E0D0E0CE15DF0581F0D801B8
:1000E0006D918D01D601ED91FC910190F081E02D93
:1000F000C6010995892B11F02196EECF7E01C7012B
:10010000DF91CF911F910F91FF90EF90DF90CF90F3
:100110000895089580E090E00895FC01538D448D8A
:10012000252F30E0842F90E0821B930B541710F0A2
:10013000CF96089501970895FC01918D828D9817AF
:1001400061F0828DDF01A80FB11D5D968C91928DBB
:100150009F5F9F73928F90E008958FEF9FEF0895B8
:10016000FC01918D828D981731F0828DE80FF11D81
:10017000858D90E008958FEF9FEF0895FC01918D9C
:10018000228D892F90E0805C9F4F821B91098F7395
:100190009927089581EA96E00E94BE0021E0892B0C
:1001A00009F420E0822F0895FC01848DDF01A80F5F
:1001B000B11DA35ABF4F2C91848D90E001968F738F
:1001C0009927848FA689B7892C93A089B1898C91AE
:1001D000837080648C93938D848D981306C00288FD
:1001E000F389E02D80818F7D80830895EF92FF92C7
:1001F0000F931F93CF93DF93EC0181E0888F9B8D4A
:100200008C8D981305C0E889F989808185FD26C009
:10021000F62E0B8D10E00F5F1F4F0F731127E02E8E
:100220008C8DE8120CC00FB607FCFACFE889F9896B
:10023000808185FFF5CFCE010E94D400F1CF8B8D58
:10024000FE01E80FF11DE35AFF4FF0829FB7F894CB
:100250000B8FEA89FB89808180620AC09FB7F8947E
:10026000EE89FF896083E889F989808183708064E1
:1002700080839FBF81E090E0DF91CF911F910F912C
:10028000FF90EF900895CF93DF93EC01888D882342
:10029000C9F0EA89FB89808185FD05C0A889B989F3
:1002A0008C9186FD0FC00FB607FCF5CF808185FFCE
:1002B000F2CFA889B9898C9185FFEDCFCE010E943C
:1002C000D400E7CFDF91CF91089580E090E0892BB3
:1002D00029F00E94CA0081110C9400000895009733
:1002E00069F0FC0101900020E9F73197AF01481B4C
:1002F000590BBC0181EA96E00C945F0080E090E02D
:1003000008950E9440061F920F920FB60F9211247B
:100310002F933F938F939F93AF93BF9380919D06AD
:1003200090919E06A0919F06B091A00630919C06E8
:1003300023E0230F2D3720F40196A11DB11D05C028
:1003400026E8230F0296A11DB11D20939C068093E1
:100350009D0690939E06A0939F06B093A006809161
:10036000980690919906A0919A06B0919B060196E5
:10037000A11DB11D8093980690939906A0939A06AB
:10038000B0939B06BF91AF919F918F913F912F9119
:100390000F900FBE0F901F9018951F920F920FB6DF
:1003A0000F9211242F933F934F935F936F937F93FB
:1003B0008F939F93AF93BF93EF93FF9381EA96E060
:1003C0000E94D400FF91EF91BF91AF919F918F91C7
:1003D0007F916F915F914F913F912F910F900FBE41
:1003E0000F901F9018951F920F920FB60F92112425
:1003F0002F938F939F93EF93FF93E091B106F0912A
:10040000B2068081E091B706F091B80682FD12C075
:1004100090818091BA068F5F8F732091BB068217FF
:1004200051F0E091BA06F0E0EF55F94F958F8093C7
:10043000BA0601C08081FF91EF919F918F912F911A
:100440000F900FBE0F901F901895CF93DF93CDB7ED
:10045000DEB7A2970FB6F894DEBF0FBECDBF78947B
:1004600084B5826084BD84B5816084BD85B58260B9
:1004700085BD85B5816085BD80916E00816080936A
:100480006E001092810080918100826080938100D3
:1004900080918100816080938100809180008160E3
:1004A000809380008091B10084608093B10080913E
:1004B000B00081608093B00080917A008460809366
:1004C0007A0080917A00826080937A0080917A002D
:1004D000816080937A0080917A00806880937A00AE
:1004E0001092C100E091B106F091B20682E08083E3
:1004F000E091AD06F091AE061082E091AF06F0916A
:10050000B0068FEC80831092B906E091B506F091A9
:10051000B60686E08083E091B306F091B406808150
:1005200080618083E091B306F091B4068081886099
:100530008083E091B306F091B40680818068808367
:10054000E091B306F091B40680818F7D808382E1D3
:1005500096E00E946F018FE496E00E946F0100E038
:1005600011E030E0E32E36E0F32E60E070E0CB01E6
:10057000F80121913191419151918F010E94DD0348
:10058000E016F106A9F720E030E040EA53E40E94CB
:100590004E046B017C014B015C0182E596E00E94F8
:1005A0006F01A7019601C701B6010E9413068823B7
:1005B00019F082E796E01AC026013701E89477F82F
:1005C0002FEF3FEF4FE75FE7C301B2010E94130631
:1005D00081110FC02FEF3FEF4FE75FE7C301B2017B
:1005E0000E94490418162CF486E796E00E946F01D9
:1005F000A7C02FEF3FEF4FE75FE4C701B6010E94AE
:10060000A10518161CF48AE796E0F0CF2FEF3FEF14
:100610004FE75FECC701B6010E94490487FDF3CFA5
:1006200020E030E0A901C701B6010E94490487FF1C
:100630000BC06DE281EA96E00E94F6004601570188
:10064000B7FAB094B7F8B0942AE037ED43EA5BE329
:10065000C501B4010E94DD034B015C010E94C0048E
:100660006B017C010E94EF049B01AC01C501B40148
:100670000E94DC034B015C0119A28E010F5D1F4F2C
:100680000AA3612E2AE0222E312C412C512CC701C5
:10069000B601A20191010E94180669017A01605D0C
:1006A000F80162938F01232B242B252B81F7CF0197
:1006B0000E946F016EE281EA96E00E94F60083E0FC
:1006C000F82E9AE0292E312C412C512CFA94FF203F
:1006D000B9F120E030E040E251E4C501B4010E94EC
:1006E000A6054B015C010E94C0049B0140E050E064
:1006F00019A20AA1162D762EC32ED42EE52ECA01DC
:10070000B901A20191010E941806605DF80162938F
:100710008F01211531054105510589F7CF010E944F
:100720006F01672D7C2D8D2D9E2D0E94EF049B0166
:10073000AC01C501B4010E94DC034B015C01C6CFD2
:100740008FE496E00E946F018EE796E00E946F01B1
:100750008FE496E00E946F010E946501FDCFE1EAFF
:10076000F6E01382128288EE93E0A0E0B0E084838A
:100770009583A683B78384E096E09183808385EC9C
:1007800090E09587848784EC90E09787868780EC5B
:1007900090E0918B808B81EC90E0938B828B82EC4C
:1007A00090E0958B848B86EC90E0978B868B118EF6
:1007B000128E138E148E08955058BB27AA270E94BC
:1007C000F4030C9467050E94590538F00E946005F7
:1007D00020F039F49F3F19F426F40C9456050EF4DA
:1007E000E095E7FB0C945005E92F0E94780558F33B
:1007F000BA17620773078407950720F079F4A6F506
:100800000C949A050EF4E0950B2EBA2FA02D0B0137
:10081000B90190010C01CA01A0011124FF27591B45
:1008200099F0593F50F4503E68F11A16F040A22F4B
:10083000232F342F4427585FF3CF469537952795BC
:10084000A795F0405395C9F77EF41F16BA0B620BBB
:10085000730B840BBAF09150A1F0FF0FBB1F661F02
:10086000771F881FC2F70EC0BA0F621F731F841F45
:1008700048F4879577956795B795F7959E3F08F06B
:10088000B0CF9395880F08F09927EE0F979587952D
:1008900008950E942C0508F481E008950E946204E6
:1008A0000C9467050E94600558F00E94590540F0BD
:1008B00029F45F3F29F00C94500551110C949B05CD
:1008C0000C9456050E94780568F39923B1F35523DB
:1008D00091F3951B550BBB27AA2762177307840753
:1008E00038F09F5F5F4F220F331F441FAA1FA9F3E9
:1008F00035D00E2E3AF0E0E832D091505040E695D7
:10090000001CCAF72BD0FE2F29D0660F771F881F37
:10091000BB1F261737074807AB07B0E809F0BB0B2A
:10092000802DBF01FF2793585F4F3AF09E3F51053E
:1009300078F00C9450050C949B055F3FE4F3983ECF
:10094000D4F3869577956795B795F7959F5FC9F727
:10095000880F911D9695879597F90895E1E0660FA8
:10096000771F881FBB1F621773078407BA0720F021
:10097000621B730B840BBA0BEE1F88F7E09508958A
:100980000E94800588F09F5798F0B92F9927B7519A
:10099000B0F0E1F0660F771F881F991F1AF0BA9523
:1009A000C9F714C0B13091F00E949A05B1E00895E2
:1009B0000C949A05672F782F8827B85F39F0B93FD4
:1009C000CCF3869577956795B395D9F73EF49095D6
:1009D0008095709561957F4F8F4F9F4F0895E89454
:1009E00009C097FB3EF490958095709561957F4F77
:1009F0008F4F9F4F9923A9F0F92F96E9BB27939525
:100A0000F695879577956795B795F111F8CFFAF434
:100A1000BB0F11F460FF1BC06F5F7F4F8F4F9F4F65
:100A200016C0882311F096E911C0772321F09EE8C3
:100A3000872F762F05C0662371F096E8862F70E029
:100A400060E02AF09A95660F771F881FDAF7880F03
:100A50009695879597F90895990F0008550FAA0B59
:100A6000E0E8FEEF16161706E807F907C0F01216C1
:100A70001306E407F50798F0621B730B840B950BC4
:100A800039F40A2661F0232B242B252B21F4089519
:100A90000A2609F4A140A6958FEF811D811D0895B6
:100AA00097F99F6780E870E060E008959FEF80EC21
:100AB000089500240A9416161706180609060895C4
:100AC00000240A9412161306140605060895092E2A
:100AD0000394000C11F4882352F0BB0F40F4BF2B99
:100AE00011F460FF04C06F5F7F4F8F4F9F4F0895D9
:100AF00057FD9058440F551F59F05F3F71F04795CF
:100B0000880F97FB991F61F09F3F79F087950895B3
:100B1000121613061406551FF2CF4695F1DF08C0D2
:100B2000161617061806991FF1CF869571056105EF
:100B300008940895E894BB2766277727CB0197F997
:100B400008950E942C0508F48FEF08950E94B905BE
:100B50000C9467050E94590538F00E94600520F04A
:100B6000952311F00C9450050C94560511240C9407
:100B70009B050E94780570F3959FC1F3950F50E097
:100B8000551F629FF001729FBB27F00DB11D639F3F
:100B9000AA27F00DB11DAA1F649F6627B00DA11DE5
:100BA000661F829F2227B00DA11D621F739FB00D8B
:100BB000A11D621F839FA00D611D221F749F3327FB
:100BC000A00D611D231F849F600D211D822F762F94
:100BD0006A2F11249F5750409AF0F1F088234AF071
:100BE000EE0FFF1FBB1F661F771F881F91505040DD
:100BF000A9F79E3F510580F00C9450050C949B057D
:100C00005F3FE4F3983ED4F3869577956795B79563
:100C1000F795E7959F5FC1F7FE2B880F911D96957D
:100C2000879597F908950E942C05880B990B0895D4
:100C3000A1E21A2EAA1BBB1BFD010DC0AA1FBB1FE0
:100C4000EE1FFF1FA217B307E407F50720F0A21B52
:100C5000B30BE40BF50B661F771F881F991F1A94BF
:100C600069F760957095809590959B01AC01BD01E9
:100C7000CF010895EE0FFF1F0590F491E02D099428
:0E0C800081E090E0F8940C944506F894FFCFC4
:100C8E0000000000D9AB173F1504C2BD15EF433E5F
:100C9E000000803F09B8D53EF304B53E72ADA03FCB
:100CAE00D7B35D3F5E83EC3EB2E4A83F8D65973FC0
:100CBE000000003F8D65973FB2E4A83F5E83EC3E97
:100CCE00D7B35D3F72ADA03FF304B53E09B8D53E34
:100CDE000000803F15EF433E1504C2BDD9AB173F50
:100CEE0000000080D9AB17BF1504C23D15EF43BEFF
:100CFE00000080BF09B8D5BEF304B5BE72ADA0BF6B
:100D0E00D7B35DBF5E83ECBEB2E4A8BF8D6597BF5F
:100D1E00000000BF8D6597BFB2E4A8BF5E83ECBE36
:100D2E00D7B35DBF72ADA0BFF304B5BE09B8D5BED3
:100D3E00000080BF15EF43BE1504C23DD9AB17BFEF
:100D4E0000000000D9AB173F1504C2BD15EF433E9E
:100D5E000000803F09B8D53EF304B53E72ADA03F0A
:100D6E00D7B35D3F5E83EC3EB2E4A83F8D65973FFF
:100D7E000000003F8D65973FB2E4A83F5E83EC3ED6
:100D8E00D7B35D3F72ADA03FF304B53E09B8D53E73
:100D9E000000803F15EF433E1504C2BDD9AB173F8F
:100DAE0000000000D9AB17BF1504C23D15EF43BEBE
:100DBE00000080BF09B8D5BEF304B5BE72ADA0BFAA
:100DCE00D7B35DBF5E83ECBEB2E4A8BF8D6597BF9F
:100DDE00000000BF8D6597BFB2E4A8BF5E83ECBE76
:100DEE00D7B35DBF72ADA0BFF304B5BE09B8D5BE13
:100DFE00000080BF15EF43BE1504C23DD9AB17BF2F
:100E0E0000000000D9AB173F1504C2BD15EF433EDD
:100E1E000000803F09B8D53EF304B53E72ADA03F49
:100E2E00D7B35D3F5E83EC3EB2E4A83F8D65973F3E
:100E3E000000003F8D65973FB2E4A83F5E83EC3E15
:100E4E00D7B35D3F72ADA03FF304B53E09B8D53EB2
:100E5E000000803F15EF433E1504C2BDD9AB173FCE
:100E6E0000000000D9AB17BF1504C23D15EF43BEFD
:100E7E00000080BF09B8D5BEF304B5BE72ADA0BFE9
:100E8E00D7B35DBF5E83ECBEB2E4A8BF8D6597BFDE
:100E9E00000000BF8D6597BFB2E4A8BF5E83ECBEB5
:100EAE00D7B35DBF72ADA0BFF304B5BE09B8D5BE52
:100EBE00000080BF15EF43BE1504C23DD9AB17BF6E
:100ECE0000000080D9AB173F1504C2BD15EF433E9D
:100EDE000000803F09B8D53EF304B53E72ADA03F89
:100EEE00D7B35D3F5E83EC3EB2E4A83F8D65973F7E
:100EFE000000003F8D65973FB2E4A83F5E83EC3E55
:100F0E00D7B35D3F72ADA03FF304B53E09B8D53EF1
:100F1E000000803F15EF433E1504C2BDD9AB173F0D
:100F2E0000000080D9AB17BF1504C23D15EF43BEBC
:100F3E00000080BF09B8D5BEF304B5BE72ADA0BF28
:100F4E00D7B35DBF5E83ECBEB2E4A8BF8D6597BF1D
:100F5E00000000BF8D6597BFB2E4A8BF5E83ECBEF4
:100F6E00D7B35DBF72ADA0BFF304B5BE09B8D5BE91
:100F7E00000080BF15EF43BE1504C23DD9AB17BFAD
:100F8E0000000000D9AB173F1504C2BD15EF433E5C
:100F9E000000803F09B8D53EF304B53E72ADA03FC8
:100FAE00D7B35D3F5E83EC3EB2E4A83F8D65973FBD
:100FBE000000003F8D65973FB2E4A83F5E83EC3E94
:100FCE00D7B35D3F72ADA03FF304B53E09B8D53E31
:100FDE000000803F15EF433E1504C2BDD9AB173F4D
:100FEE0000000000D9AB17BF1504C23D15EF43BE7C
:100FFE00000080BF09B8D5BEF304B5BE72ADA0BF68
:10100E00D7B35DBF5E83ECBEB2E4A8BF8D6597BF5C
:10101E00000000BF8D6597BFB2E4A8BF5E83ECBE33
:10102E00D7B35DBF72ADA0BFF304B5BE09B8D5BED0
:10103E00000080BF15EF43BE1504C23DD9AB17BFEC
:10104E0000000080D9AB173F1504C2BD15EF433E1B
:10105E000000803F09B8D53EF304B53E72ADA03F07
:10106E00D7B35D3F5E83EC3EB2E4A83F8D65973FFC
:10107E000000003F8D65973FB2E4A83F5E83EC3ED3
:10108E00D7B35D3F72ADA03FF304B53E09B8D53E70
:10109E000000803F15EF433E1504C2BDD9AB173F8C
:1010AE0000000000D9AB17BF1504C23D15EF43BEBB
:1010BE00000080BF09B8D5BEF304B5BE72ADA0BFA7
:1010CE00D7B35DBF5E83ECBEB2E4A8BF8D6597BF9C
:1010DE00000000BF8D6597BFB2E4A8BF5E83ECBE73
:1010EE00D7B35DBF72ADA0BFF304B5BE09B8D5BE10
:1010FE00000080BF15EF43BE1504C23DD9AB17BF2C
:10110E0000000080D9AB173F1504C2BD15EF433E5A
:10111E000000803F09B8D53EF304B53E72ADA03F46
:10112E00D7B35D3F5E83EC3EB2E4A83F8D65973F3B
:10113E000000003F8D65973FB2E4A83F5E83EC3E12
:10114E00D7B35D3F72ADA03FF304B53E09B8D53EAF
:10115E000000803F15EF433E1504C2BDD9AB173FCB
:10116E0000000000D9AB17BF1504C23D15EF43BEFA
:10117E00000080BF09B8D5BEF304B5BE72ADA0BFE6
:10118E0000000000F6005F008D004301BE009C00D1
:10119E00B0005374617274696E6720746573742045
:1011AE006F66207468652053746174696320536997
:1011BE00676E616C204D65616E2043616C63756C6A
:1011CE0061746F722046756E6374696F6E3A000DAE
:1011DE000A00546865206D65616E20776173206327
:1011EE00616C63756C6174656420746F2062653A1E
:1011FE0020006E616E00696E66006F766600546840
:10120E006520726573756C742073686F756C6420DD
:08121E006265202E303400004F
:00000001FF
